:100000000C9437010C9468010C9468010C946801FD
:100010000C9468010C9468010C9468010C946801BC
:100020000C9468010C9468010C9468010C946801AC
:100030000C9468010C9468010C9468010C9468019C
:100040000C9468010C9468010C9468010C9468018C
:100050000C9468010C9468010C9468010C942106BE
:100060000C9468010C9405040C943B040C946801F6
:100070000C9468010C9468010C9468010C9468015C
:100080000C9468010C9468010C9468010C9468014C
:100090000C9468010C9468010C9468010C9468013C
:1000A0000C9468010C9468010C9468010C9468012C
:1000B0000C9468010C9468010C9468010C9468011C
:1000C0000C9468010C9468010C9468010C949C04D5
:1000D0000C94D2040C9468010C9468010C9468018F
:1000E0000C9468010C9484070C94B3010C94D00216
:1000F0000C946F040C9465040C945E070C94A2029B
:100100000C944F070C9436030C9456030C9472070E
:100110000C9457070C9476070C94AE020C94FC04D4
:100120000C9468070C9449070C945B070C948007A7
:100130000C9489070C94DF020C948A070C946E07C8
:100140000C947C070C9464070C9433050C94BC024B
:100150000C948E070C9406050C949A020C94530789
:1001600000000A0B02090C0D0E0807030401000031
:10017000000000000000000000000000000000007F
:10018000000000000000000000000000121110003C
:10019000000000000000000000000000000000005F
:1001A000000000000000010210202008081020407C
:1001B000102040800201020108040201010204082B
:1001C00010204080804020100804020180040201B9
:1001D0008040201008040201080402010102040802
:1001E000102040800102040810204080050505050C
:1001F000070508080808020202020A0A080804049F
:1002000004040101010101010101030303030303CC
:100210000303040707070C0C0C0C0C0C0C0C02025B
:10022000020206060606060606060B0B0B0B0B0B58
:100230000B0B00002200250028002B002E003100AF
:10024000340002010000050108010B01000021003B
:10025000240027002A002D00300033000101000097
:10026000040107010A01B3016F0406059A02112473
:100270001FBECFEFD1E2DEBFCDBF00E00CBF12E06A
:10028000A0E0B2E0EEE9F4E100E00BBF02C00790AD
:100290000D92AC35B107D9F724E0ACE5B2E001C06E
:1002A0001D92A335B207E1F711E0C6E3D1E000E00B
:1002B00006C021970109802FFE010E941F08C33349
:1002C000D10780E00807A9F70E9412060C943D0AA6
:1002D0000C94000061E08AE00E94920760E08AE0EE
:1002E0000C94CE0761E08DE00E94920768EE73E007
:1002F00080E090E00E94900626E040E05BE460E051
:1003000070E08CE093E00E94A30326E040E05BE411
:1003100060E070E089EA93E00E94A30368EE73E076
:1003200080E090E00E94900666E072E08CE093E04E
:100330000E94730564E670E080E090E00E94900601
:100340000E946A0161E08DE00E94CE0768EE73E0D2
:1003500080E090E00E94900664E372E08CE093E01D
:100360000C9473050895E8E6F2E01082118212827F
:1003700013821482158216821782108611861286C5
:1003800013861486158616861786108A118A128A95
:10039000138A148A158A168A178A108E118E128E65
:1003A000138E148E158E168E178E10A211A212A205
:1003B00013A214A215A216A217A210A611A612A685
:1003C00013A614A615A616A617A610AA11AA12AA55
:1003D00013AA14AA15AA16AA17AA10AE11AE12AE25
:1003E00013AE14AE15AE16AE17AE1092A802109250
:1003F000A9021092AA021092AB021092AC021092C3
:10040000AD021092AE021092AF021092B0021092A2
:10041000B1021092B2021092B3021092B402109282
:10042000B5021092B6021092B7021092B802109262
:10043000B9021092BA021092BB021092BC02109242
:10044000BD028EE08093BE0285E090E09093C002F2
:100450008093BF028EE190E09093C2028093C1022C
:10046000E3ECF2E090E1DF01892F1D928A95E9F734
:1004700081E0808383E08093D202E3EDF2E0DF014C
:100480001D929A95E9F722E0208394E09093E2028E
:100490006BE26093E3025DE25093E4024FE240932B
:1004A000E50239E23093E6021092E7021092E80288
:1004B0001092E9021092EA021092EB021092EC0202
:1004C0001092ED021092EE021092F4021092F302DA
:1004D0007EE27093FD027CE27093FE02609307035C
:1004E000509308034093090330930A0337E2309393
:1004F000FF0235E23093000337E33093010336E324
:100500003093020338E33093030339E33093040359
:10051000209305039093060380930B036FE372E02F
:1005200082E692E00E94FC056BE572E08CE592E0C9
:100530000C94FC058CE592E00E948A0582E692E02C
:100540000C948A05FC01918D228D892F90E0805CAE
:100550009F4F821B91098F7399270895FC01918DFC
:10056000828D981731F0828DE80FF11D858D90E016
:1005700008958FEF9FEF0895FC01918D828D98175C
:1005800061F0A28DAE0FBF2FB11D5D968C91928D43
:100590009F5F9F73928F90E008958FEF9FEF089574
:1005A000FC01538D448D252F30E0842F90E0821B79
:1005B000930B541710F0CF9608950197089585E690
:1005C00094E0892B49F080E090E0892B29F00E948B
:1005D000650481110E94000080E090E0892B49F0C1
:1005E00080E090E0892B29F00E94000081110E9498
:1005F00000008CEF94E0892B49F080E090E0892B9B
:1006000029F00E94FC0481110E94000080E090E02B
:10061000892B49F080E090E0892B29F00E940000AE
:1006200081110C9400000895FC01A48DA80FB92F2E
:10063000B11DA35ABF4F2C91848D90E001968F730A
:100640009927848FA689B7892C93A089B1898C9129
:10065000837080648C93938D848D981306C0028878
:10066000F389E02D80818F7D80830895CF93DF9380
:10067000EC01888D8823B9F0AA89BB89E889F989BA
:100680008C9185FD03C0808186FD0DC00FB607FCEF
:10069000F7CF8C9185FFF2CF808185FFEDCFCE0122
:1006A0000E941403E9CFDF91CF910895EF92FF925A
:1006B0000F931F93CF93DF93EC0181E0888F9B8D85
:1006C0008C8D98131AC0E889F989808185FF15C03F
:1006D0009FB7F894EE89FF896083E889F989808162
:1006E0008370806480839FBF81E090E0DF91CF9131
:1006F0001F910F91FF90EF900895F62E0B8D10E053
:100700000F5F1F4F0F731127E02E8C8D8E110CC0C1
:100710000FB607FCFACFE889F989808185FFF5CF0C
:10072000CE010E941403F1CFEB8DEC0FFD2FF11DD4
:10073000E35AFF4FF0829FB7F8940B8FEA89FB8949
:1007400080818062CFCFCF92DF92EF92FF921F9392
:10075000CF93DF93EC016A017B01122FE889F989BD
:1007600082E08083C11481EED806E104F104A1F097
:1007700060E079E08DE390E0A70196010E94FD071B
:1007800021503109410951095695479537952795CB
:10079000211580E1380798F0E889F989108260E82E
:1007A00074E88EE190E0A70196010E94FD072150B8
:1007B0003109410951095695479537952795EC859B
:1007C000FD853083EE85FF852083188EEC89FD89B9
:1007D0001083EA89FB89808180618083EA89FB89B3
:1007E000808188608083EA89FB898081806880833A
:1007F000EA89FB8980818F7D8083DF91CF911F9172
:10080000FF90EF90DF90CF9008951F920F920FB658
:100810000F9211240BB60F922F938F939F93EF9308
:10082000FF93E0911C03F0911D038081E09122036E
:10083000F091230382FD1DC09081809125038F5F7D
:100840008F7320912603821741F0E0912503F0E099
:10085000E45FFC4F958F80932503FF91EF919F916B
:100860008F912F910F900BBE0F900FBE0F901F9086
:1008700018958081F2CF1F920F920FB60F9211241C
:100880000BB60F922F933F934F935F936F937F938A
:100890008F939F93AF93BF93EF93FF938CE093E07D
:1008A0000E941403FF91EF91BF91AF919F918F919F
:1008B0007F916F915F914F913F912F910F900BBE60
:1008C0000F900FBE0F901F9018958CE093E00E9440
:1008D000A20221E0892B09F420E0822F0895ECE0A8
:1008E000F3E01382128288EE93E0A0E0B0E084830C
:1008F0009583A683B7838BE492E09183808385EC14
:1009000090E09587848784EC90E09787868780ECD9
:1009100090E0918B808B81EC90E0938B828B82ECCA
:1009200090E0958B848B86EC90E0978B868B118E74
:10093000128E138E148E08951F920F920FB60F927F
:1009400011240BB60F922F938F939F93EF93FF93E6
:10095000E091B903F091BA038081E091BF03F09177
:10096000C00382FD1DC090818091C2038F5F8F7391
:100970002091C303821741F0E091C203F0E0E755F4
:10098000FC4F958F8093C203FF91EF919F918F91C0
:100990002F910F900BBE0F900FBE0F901F901895C8
:1009A0008081F2CF1F920F920FB60F9211240BB6D7
:1009B0000F922F933F934F935F936F937F938F93F8
:1009C0009F93AF93BF93EF93FF9389EA93E00E94C5
:1009D0001403FF91EF91BF91AF919F918F917F9100
:1009E0006F915F914F913F912F910F900BBE0F90A0
:1009F0000FBE0F901F90189589EA93E00E94A20203
:100A000021E0892B09F420E0822F0895E9EAF3E040
:100A10001382128288EE93E0A0E0B0E08483958395
:100A2000A683B7838BE492E09183808385ED90E089
:100A30009587848784ED90E09787868780ED90E0A6
:100A4000918B808B81ED90E0938B828B82ED90E097
:100A5000958B848B86ED90E0978B868B118E128E12
:100A6000138E148E0895AF92BF92CF92DF92EF92C1
:100A7000FF920F931F93CF93DF936C017B018B0148
:100A8000040F151FEB015E01AE18BF08C017D10798
:100A900059F06991D601ED91FC910190F081E02D22
:100AA000C6011995892B79F7C501DF91CF911F9167
:100AB0000F91FF90EF90DF90CF90BF90AF9008958F
:100AC000FB0101900020E9F73197AF01461B570B5E
:100AD000DC01ED91FC910280F381E02D199469E530
:100AE00072E00C9460050F931F93CF93DF938C01FA
:100AF000D0E0C0E06115710519F00E946005EC01BD
:100B0000C8010E946F058C0F9D1FDF91CF911F912F
:100B10000F910895FC0180819181009711F00C9450
:100B2000C3080895CF93DF93EC01888199810097E2
:100B300011F00E94C308198218821D821C821B8238
:100B40001A82DF91CF9108950F931F93CF93DF9374
:100B5000EC018B016F5F7F4F888199810E944C0966
:100B6000009751F0998388831B830A8381E0DF918A
:100B7000CF911F910F91089580E0F9CFCF93DF932C
:100B8000EC0188819981892B49F08A819B818617A4
:100B9000970720F081E0DF91CF910895CE010E9468
:100BA000A4058823C1F38C819D81892B99F7E88165
:100BB000F9811082EFCFEF92FF920F931F93CF93A3
:100BC000DF93EC017B018A01BA010E94BE0581110D
:100BD0000BC0CE010E949205CE01DF91CF911F91F3
:100BE0000F91FF90EF9008951D830C83B7018881CA
:100BF00099810E94360AF0CFFC0111821082138283
:100C00001282158214826115710551F0FB01019069
:100C10000020E9F73197AF01461B570B0C94DB0519
:100C2000089508950E94C9060E9411060E9472014B
:100C3000CFEDD2E00E94B2012097E1F30E94DF02E3
:100C4000F9CF1F920F920FB60F9211242F933F935B
:100C50008F939F93AF93BF938091470490914804E3
:100C6000A0914904B0914A043091460423E0230F37
:100C70002D3758F50196A11DB11D20934604809390
:100C8000470490934804A0934904B0934A04809188
:100C90004B0490914C04A0914D04B0914E040196E8
:100CA000A11DB11D80934B0490934C04A0934D045F
:100CB000B0934E04BF91AF919F918F913F912F912F
:100CC0000F900FBE0F901F90189526E8230F0296E5
:100CD000A11DB11DD2CF3FB7F89480914B049091E4
:100CE0004C04A0914D04B0914E0426B5A89B05C0BC
:100CF0002F3F19F00196A11DB11D3FBFBA2FA92F9B
:100D0000982F8827BC01CD01620F711D811D911D97
:100D100042E0660F771F881F991F4A95D1F7089503
:100D20008F929F92AF92BF92CF92DF92EF92FF92FB
:100D30006B017C010E946B064B015C01C114D10464
:100D4000E104F104E9F00E94FC070E946B066819B7
:100D500079098A099B09683E73408105910570F302
:100D600021E0C21AD108E108F10888EE880E83E07C
:100D7000981EA11CB11CC114D104E104F10429F78F
:100D8000FF90EF90DF90CF90BF90AF909F908F90AB
:100D90000895789484B5826084BD84B5816084BDF3
:100DA00085B5826085BD85B5816085BDEEE6F0E0E4
:100DB000808181608083E1E8F0E010828081826040
:100DC0008083808181608083E0E8F0E080818160C1
:100DD0008083E1EBF0E0808184608083E0EBF0E0F1
:100DE000808181608083E1E9F0E08081826080839E
:100DF000808181608083E0E9F0E080818160808390
:100E0000E1EAF0E08081826080838081816080837C
:100E1000E0EAF0E0808181608083E1E2F1E08081BE
:100E200082608083808181608083E0E2F1E0808164
:100E300081608083EAE7F0E0808184608083808144
:100E400082608083808181608083808180688083EC
:100E50001092C10008958150823108F05AC0E82FE5
:100E6000F0E08827E95CF84F8F4F0C941F08570774
:100E70005B0749074F07530789075E076407680741
:100E80006E07720776077C078007890784078A0741
:100E90008E07809180008F778093800008958091E5
:100EA00080008F7DF9CF80918000877FF5CF84B55A
:100EB0008F7784BD089584B58F7DFBCF8091B0007E
:100EC0008F778093B00008958091B0008F7DF9CF27
:100ED000809190008F77809390000895809190008A
:100EE0008F7DF9CF80919000877FF5CF8091A00012
:100EF0008F778093A00008958091A0008F7DF9CF17
:100F00008091A000877FF5CF809120018F7780931B
:100F100020010895809120018F7DF9CF80912001DB
:100F2000877FF5CFCF93DF9390E0FC01EA55FE4F2A
:100F3000249184519E4FFC0184918823C9F090E054
:100F4000880F991FFC01E45BFD4FA591B491FC0152
:100F5000EE5CFD4FC591D49161110DC09FB7F8941F
:100F60008C91209582238C938881282328839FBF8E
:100F7000DF91CF910895623051F49FB7F8943C917E
:100F8000822F809583238C93E8812E2BEFCF8FB710
:100F9000F894EC912E2B2C938FBFEACF1F93CF9315
:100FA000DF93282F30E0F901E05AFE4F8491F901D8
:100FB000EA55FE4FD491F901E451FE4FC491CC2380
:100FC000A9F0162F81110E942B07EC2FF0E0EE0FF5
:100FD000FF1FEE5CFD4FA591B4918FB7F894EC9193
:100FE000111108C0D095DE23DC938FBFDF91CF9124
:100FF0001F910895DE2BF8CF0895A1E21A2EAA1BA7
:10100000BB1BFD010DC0AA1FBB1FEE1FFF1FA217B8
:10101000B307E407F50720F0A21BB30BE40BF50BB5
:10102000661F771F881F991F1A9469F7609570953E
:10103000809590959B01AC01BD01CF010895EE0F05
:10104000FF1F881F8BBF0790F691E02D19940F9317
:101050001F93CF93DF938230910510F482E090E0EC
:10106000E0915104F091520430E020E0B0E0A0E0C3
:10107000309799F42115310509F44AC0281B390B22
:1010800024303105D8F58A819B816115710589F17C
:10109000FB0193838283FE0111C040815181028153
:1010A000138148175907E0F04817590799F410972A
:1010B00061F012960C93129713961C933296CF01FF
:1010C000DF91CF911F910F910895009351041093D8
:1010D0005204F4CF2115310551F04217530738F06F
:1010E000A901DB019A01BD01DF01F801C1CFEF01C8
:1010F000F9CF9093520480935104CDCFFE01E20FBB
:10110000F31F819391932250310939832883D7CFDC
:1011100020914F0430915004232B41F4209102027E
:10112000309103023093500420934F042091000229
:10113000309101022115310541F42DB73EB74091A0
:10114000040250910502241B350BE0914F04F091ED
:101150005004E217F307A0F42E1B3F0B28173907A2
:1011600078F0AC014E5F5F4F2417350748F04E0F03
:101170005F1F5093500440934F04819391939FCFEE
:10118000F0E0E0E09CCFCF93DF930097E9F0FC0123
:10119000329713821282A0915104B0915204ED0152
:1011A00030E020E01097A1F420813181820F931F5D
:1011B00020914F04309150042817390709F061C07D
:1011C000F0935004E0934F04DF91CF910895EA012A
:1011D000CE17DF07E8F54A815B819E014115510575
:1011E000B1F7E901FB83EA8349915991C40FD51FF7
:1011F000EC17FD0761F4808191810296840F951FA1
:10120000E90199838883828193819B838A83F0E0BB
:10121000E0E012968D919C9113970097B9F52D916E
:101220003C911197CD010296820F931F20914F049C
:10123000309150042817390739F6309751F510923C
:10124000520410925104B0935004A0934F04BCCFA9
:10125000D383C28340815181840F951FC817D9075A
:1012600061F44E5F5F4F88819981480F591F518308
:1012700040838A819B81938382832115310509F004
:10128000B0CFF0935204E09351049ECFFD01DC01F6
:10129000C0CF13821282D7CF4F925F926F927F920C
:1012A0008F929F92AF92BF92CF92DF92EF92FF9276
:1012B0000F931F93CF93DF938C01009799F4CB0189
:1012C000DF91CF911F910F91FF90EF90DF90CF9022
:1012D000BF90AF909F908F907F906F905F904F9056
:1012E0000C942708FC01E60FF71F9C0122503109DE
:1012F000E217F30708F4AEC0D901CD91DC91119744
:10130000C617D70720F1C530D10578F0CE01049774
:101310008617970750F0C61BD70B2297C193D1931E
:101320006D937C93CF010E94C308C801DF91CF91D8
:101330001F910F91FF90EF90DF90CF90BF90AF90F3
:101340009F908F907F906F905F904F9008955B017A
:10135000AC1ABD0A4C018C0E9D1EA0915104B09197
:101360005204512C412CF12CE12C109731F5809135
:101370004F04909150048815990509F05CC04616F9
:10138000570608F058C08091000290910102009722
:1013900041F48DB79EB74091040250910502841B21
:1013A000950BE817F90708F055C0F0935004E09347
:1013B0004F04F90171836083B8CF8D919C9111978F
:1013C00012966C90129713967C901397A815B905F6
:1013D00059F56C0142E0C40ED11CCA14DB0420F1A3
:1013E000AC014A195B09DA011296159780F0628206
:1013F000738251834083D9016D937C93E114F1048E
:1014000071F0D7011396FC93EE9312978ECF22962C
:101410008C0F9D1FF90191838083F301EFCFF0932F
:101420005204E093510481CF4816590608F42C0168
:101430007D01D3019ACFCB010E9427087C01009740
:1014400049F0AE01B8010E942D0AC8010E94C308EC
:1014500087016BCF10E000E068CFFB01DC0102C028
:1014600001900D9241505040D8F70895FB01DC01E6
:1014700001900D920020E1F7089511E0C6E3D1E05C
:1014800000E006C0802FFE010E941F082196011D6A
:0E149000C733D10780E00807A9F7F894FFCF13
:10149E0000005304800052756E2073657475702EB3
:1014AE006B2E2E0A2D2D2D2D2D2D2D2D2D2D2D2D41
:1014BE002D2D2D2D2D2D2D2D2D2D2D2D2D2D2D2D4E
:1014CE002D2D2D00536574757020646F6E6500416F
:1014DE00726475696E6F000000000056033305D00C
:0C14EE00023603A202BC02AE020D0A008E
:00000001FF
